:020000040800F2
:1000000008020020D5000008890200081F0200082D
:1000100000000000000000000000000000000000E0
:100020000000000000000000000000004103000884
:100030000000000000000000FD020008810400082C
:10004000E700000800000000E7000008E7000008E3
:10005000E7000008E7000008E7000008E7000008E4
:10006000E7000008E7000008E7000008E7000008D4
:10007000E7000008E7000008E7000008E7000008C4
:1000800000000000C904000800000000000000009B
:1000900000000000E7000008E7000008E700000893
:1000A00000000000E700000800000000E700000872
:1000B0000000000000000000000000000000000040
:1000C0000348854600F014F800480047D5050008AD
:1000D000080200200448804704480047FEE7FEE786
:1000E000FEE7FEE7FEE7FEE785040008C100000822
:1000F000064C0125064E05E0E36807CC2B430C3C7B
:1001000098471034B442F7D3FFF7DEFF0806000823
:100110002806000810B500F023F800F001F810BD23
:100120000EB50121102000F0FBF80B4801901F20B4
:1001300069460880094800F013FA0121074800F0D9
:10014000D9F901221146054800F0FDF901210348C3
:1001500000F0D8F90EBD0000E703000000100040D9
:1001600008B511216846017001214170817000F0CD
:100170008DF808BDF0B500220023002400BF3DE04B
:10018000012595402B460D681D402C469C4234D1DC
:100190000D79012D02D00D79022D16D185685700F9
:1001A0000326BE40B54385604D795600B54086684C
:1001B00035438560456801269640B54345604568EE
:1001C0008E799640B6B235434560056857000326E0
:1001D000BE40B54305600D795600B540066835430D
:1001E0000560C56857000326BE40B543C560CD799C
:1001F0005600B540C6683543C560521C102ABFD3AF
:100200000D7A002D04D1056B0E683543056303E0BC
:10021000056B0E68B5430563F0BD8161704700BF93
:10022000FEE700000EB501210D20400400F068F843
:100230000220009001216846017100218171012195
:10024000417169460E48FFF795FF8020009069468E
:100250000C48FFF78FFF0420009069460920C00674
:10026000FFF788FF02210648FFF7D7FF80210548E6
:10027000FFF7D3FF04210920C006FFF7CEFF0EBD14
:10028000000C0048000800487047000000218278F8
:10029000002A27D0184A03231B02D21803789B1088
:1002A0009B00D15802789207D30EFF229A400B464A
:1002B0009343194642789207120E03789B07DB0E90
:1002C0009A4011430C4A03231B02D21803789B1057
:1002D0009B00D1500278D306DB0E01229A40064BD8
:1002E0001A6007E00278D306DB0E01229A40024B27
:1002F00080331A607047000000E100E070470000A2
:10030000002905D0054A52690243044B5A6104E0B2
:10031000024A52698243014B5A6170470010024001
:10032000002905D0054AD2690243044BDA6104E092
:10033000024AD2698243014BDA61704700100240E1
:1003400070470000F8B50025002600270020009027
:1003500000240E48056A280C0090ACB2009820409A
:1003600000280FD10A4807680A480740E006000E37
:100370006105890E090208430646054800683043B6
:100380000349086000F008F8F8BD000000F8FF1FFE
:10039000001002400700FFFF85B00020049003908A
:1003A00002900190009033480068012108433149D0
:1003B00008603048C030806A0F21C90288432D4947
:1003C000C03188620846806A0721C902084329496A
:1003D000C031886200BF27480068022108400390AE
:1003E0000498401C04900398002803D122490498E3
:1003F0008842F0D11F48006802210840002802D03E
:100400000120039001E000200390039801282FD1E0
:100410001A48006802900298C008C00002900221A9
:100420000298084315490860124840680190F0217D
:100430000198884301900F49019848600846406838
:10044000009007210902009888430090094900980C
:100450004860084640688008800048600846406858
:10046000486000BF034840680C2108400028F9D1CB
:1004700005B0704700100240FFFF0000002002405E
:100480007047000010B50D480068012108430B4972
:100490000860084640680A4908400849486008461C
:1004A000006B132188430549086300208860FFF72B
:1004B00049FF00200349486310BD000000100240BE
:1004C0001CB8FFF84020024010B50121074800F099
:1004D00027F8002808D006480068401C0449086036
:1004E0000121024800F00AF810BD00000010004091
:1004F00000000020CA4392B202617047CA4392B220
:1005000002617047002904D0026801231A43026087
:1005100003E00268014B1A4002607047FEFF0000D2
:1005200030B5024600200023002415690D402B46FB
:10053000D5680D402C46002B03D0002C01D00120A3
:1005400000E0002030BD10B5002A03D0C3680B4383
:10055000C36004E0C368CC43A4B22340C36010BDB1
:10056000002203689AB20F4B984203D001239B07E5
:10057000984203D10C4B1A404B881A430B4B9842BC
:1005800003D00B4B1A400B891A4302604B68C362BD
:100590000B888362034B984201D18B7A036301235A
:1005A00043617047002C01408FFF000000100040A5
:1005B000FFFC000002E008C8121F08C1002AFAD19F
:1005C00070477047002001E001C1121F002AFBD1D3
:1005D00070470000FFF726FEFFF79CFD0EE008487D
:1005E00000687D21C900884208D1002004490860C4
:1005F000044840690221484002494861EFE7000091
:1006000000000020000C0048280600080000002020
:1006100004000000B40500082C06000804000020B7
:0C06200004020000C405000800000000F7
:04000005080000C12E
:00000001FF
